:100000000C9442190C946C190C946C190C946C1986
:100010000C946C190C946C190C946C190C946C194C
:100020000C946C190C946C190C946C190C946C193C
:100030000C946C190C94346C0C946C190C946C1911
:100040000C946C190C94099D0C94857E0C946C197D
:100050000C949E410C946C190C946C190C946C19B2
:100060000C946C190C946C190C946C190C946C19FC
:100070000C946C190C946C190C946C190C946C19EC
:100080000C946C190C946C190C946C19BBA5BEA53E
:10009000B1A5B5A5D5A5D5A5C2A5C6A5CCA5D0A504
:1000A000B9A6BEA6C3A6CDA6FBA6FBA6D7A6DFA66D
:1000B000E7A6F1A6084AD73B3BCE016E84BCBFFD44
:1000C000C12F3D6C74319ABD56833DDA3D00C77F28
:1000D00011BED9E4BB4C3E916BAAAABE00000080C1
:1000E0003F05A84CCDB2D44EB93836A9020C50B950
:1000F000918688083CA6AAAA2ABE000000803F007C
:100100004E414E494E495459494E46CDCCCC3D0AFC
:10011000D7233C17B7D13877CC2B329595E6241FDF
:10012000B14F0A000020410000C84200401C462098
:10013000BCBE4CCA1B0E5AAEC59D74434F4D4D55A7
:100140004E49434154494F4E0044525952554E0076
:100150004552524F525300494E464F004543484F77
:100160000047322F47332062616420706172616DF5
:1001700065746572730A00536C6565702E2E2E00CF
:100180005A2070726F6265206F75742E20626564EC
:100190000A005A2070726F6265206F75742E20629B
:1001A000656400473238205A20466F726269646481
:1001B000656E0A00473238205A20466F72626964C1
:1001C00064656E00205A3A200020593A20004265AA
:1001D0006420583A20004D65736820706F696E7412
:1001E0002063616E6E6F74206265207265736F6C40
:1001F0007665640A004D616C79616E204D31353051
:100200002072656164792E00436C69636B20746FA2
:1002100020726573756D652E2E2E004E6F206D6FEA
:1002200076652E002569730025696D2025697300A8
:100230002569682025696D2025697300256964207A
:100240002569682025696D20256973002569792055
:10025000256964202569682025696D20256973005A
:100260005072696E742074696D653A200050726F27
:100270007465637465642050696E0A0045256920C1
:100280002573004D616C79616E204D3135302072DF
:10029000656164792E005C015701500149013B0101
:1002A0006F66660044454255473A004B494C4C4501
:1002B000442E20004D3131332053004265642064C8
:1002C0006F6E652E003F0A0020573A004265642099
:1002D00048656174696E672E004649524D57415218
:1002E000455F4E414D453A4D61726C696E20312E2D
:1002F000312E3320284769746875622920534F5581
:100300005243455F434F44455F55524C3A687474BD
:1003100070733A2F2F6769746875622E636F6D2F43
:100320004D61726C696E4669726D776172652F4DB1
:1003300061726C696E2050524F544F434F4C5F5660
:10034000455253494F4E3A312E30204D4143484992
:100350004E455F545950453A4D616C79616E204D60
:100360003135302045585452554445525F434F551E
:100370004E543A3120555549443A63303431643350
:1003800038612D653364332D346362382D38386419
:10039000312D6435623361366639343462610A0066
:1003A0007A5F6D696E3A2000795F6D696E3A200060
:1003B000785F6D696E3A20005265706F7274696E75
:1003C0006720656E6473746F7020737461747573E5
:1003D0000A004D31343520533C696E6465783E2007
:1003E0006F7574206F662072616E67652028302DEE
:1003F00031290A0053657474696E672054726176FE
:10040000656C20416363656C65726174696F6E3AF7
:10041000200053657474696E67205265747261635D
:100420007420416363656C65726174696F6E3A2014
:100430000053657474696E67205072696E74204150
:100440006363656C65726174696F6E3A2000536511
:100450007474696E67205072696E7420616E6420D6
:1004600054726176656C20416363656C657261747A
:10047000696F6E3A2000205A002059005800202051
:100480004D61783A2000205A002059005800202061
:100490004D696E3A20004F6E20004F666600536F24
:1004A000667420656E6473746F70733A2000206404
:1004B0003A0020693A0020703A0043290A0061623C
:1004C0006C656420286D696E2074656D7020004332
:1004D0006F6C6420657874727564657320617265F1
:1004E000200023646566696E6520204445464155B9
:1004F0004C545F4B64200023646566696E65202060
:1005000044454641554C545F4B6920002364656661
:10051000696E65202044454641554C545F4B702020
:1005200000504944204175746F74756E652066698A
:100530006E69736865642120507574207468652045
:100540006C617374204B702C204B6920616E6420A9
:100550004B6420636F6E7374616E74732066726F88
:100560006D2062656C6F7720696E746F20436F6ECB
:1005700066696775726174696F6E2E680A0050490A
:1005800044204175746F74756E65206661696C6591
:1005900064212074696D656F75740A0050494420A8
:1005A0004175746F74756E65206661696C65642150
:1005B0002054656D706572617475726520746F6F1B
:1005C00020686967680A00204B643A2000204B6964
:1005D0003A2000204B703A20000A20436C6173736C
:1005E000696320504944200A002054753A200020B5
:1005F0004B753A2000206D61783A2000206D696EBD
:100600003A200020643A200020626961733A200099
:10061000426564204C6576656C696E6720004661B2
:10062000696C656420746F20656E61626C65204240
:100630006564204C6576656C696E670A004D65736C
:100640006820706F696E742063616E6E6F742062D3
:1006500065207265736F6C7665640A004D343231C3
:1006600020696E636F727265637420706172616D70
:10067000657465722075736167650A004F666673FD
:10068000657473206170706C696564004572723ABC
:1006900020546F6F206661722100546F6F20666175
:1006A000722066726F6D207265666572656E636535
:1006B00020706F696E740A003A20007A5F6D696E6F
:1006C0003A20202D3230207A5F6D61783A20203236
:1006D00030005A204F666673657420004163746968
:1006E00076652045787472756465723A2000556E9F
:1006F0006B6E6F776E20636F6D6D616E643A202252
:1007000000656E7175657565696E672022004E6FB4
:10071000204C696E65204E756D6265722077697434
:100720006820636865636B73756D2C204C6173740E
:10073000204C696E653A20004B494C4C45442E20B4
:100740000053544F505045442E20005072696E742F
:1007500065722073746F70706564206475652074B1
:100760006F206572726F72732E20466978207468EC
:1007700065206572726F7220616E642075736520EA
:100780004D39393920746F20726573746172742E1B
:10079000202854656D706572617475726520697387
:1007A0002072657365742E2053657420697420610E
:1007B000667465722072657374617274696E6729FC
:1007C0000A004E6F20436865636B73756D2077690F
:1007D0007468206C696E65206E756D6265722C2080
:1007E0004C617374204C696E653A200063686563E0
:1007F0006B73756D206D69736D617463682C204C2B
:10080000617374204C696E653A20004C696E6520F6
:100810004E756D626572206973206E6F74204C6135
:100820007374204C696E65204E756D6265722B3154
:100830002C204C617374204C696E653A20004D3158
:1008400031300020496E76616C696420657874727D
:1008500075646572200000004E4300005C43000098
:100860002A43000000000000000000000000205AA1
:100870003A200020593A200042656420583A20006E
:1008800042696C696E656172204C6576656C696E53
:100890006720477269643A0A0020746F6F206C6F9A
:1008A0006E6720657874727573696F6E20707265FB
:1008B00076656E7465640A0020636F6C64206578E9
:1008C00074727573696F6E2070726576656E74658B
:1008D000640A00466C6F7700466C6F770046616E65
:1008E0002073706565640046616E20737065656491
:1008F0000042656400426564004E6F7A7A6C650060
:100900004E6F7A7A6C65005370656564005370654C
:100910006564004D61696E005072656865617420A0
:10092000504C4120456E64005072656865617420CA
:10093000504C41005072656865617420504C4120F4
:10094000426564005072657061726500507265683E
:100950006561742041425320456E640050726568A1
:10096000656174204142532042656400507265689D
:100970006561742041425300507265706172650078
:100980004D343238005072656865617420504C41B6
:1009900000436F6F6C646F776E00507265686561BD
:1009A00074204142530044697361626C6520737422
:1009B000657070657273004D38340053657420683B
:1009C0006F6D65206F666673657473004175746F33
:1009D00020686F6D6500473238004D6F7665206185
:1009E000786973004D61696E004D6F76652058001F
:1009F0004D6F76652059004D6F7665205A00457819
:100A0000747275646572004D6F766520302E316D9D
:100A10006D004D6F766520316D6D004D6F766520F0
:100A200031306D6D004D6F766520617869730045DA
:100A300078747275646572004D6F7665205A004D4A
:100A40006F76652059004D6F766520580020706FD5
:100A5000736974696F6E206F7574206F66207261A0
:100A60006E67652E0A003F50726F626520005275F6
:100A70006E6E696E6720696E204452592D52554E34
:100A8000206D6F64650A00473239204175746F200C
:100A9000426564204C6576656C696E670A00284281
:100AA0002961636B00284629726F6E7400285229F1
:100AB0006967687400284C29656674003F285629C8
:100AC0006572626F7365206C6576656C2069732052
:100AD000696D706C61757369626C652028302D34A6
:100AE000292E0A00426164205A2076616C75650ADD
:100AF000004E6F2062696C696E6561722067726971
:100B0000640A005374616E6461726420446576699E
:100B10006174696F6E3A20002052616E67653A20F9
:100B200000204D61783A2000204D696E3A20004D3A
:100B300065616E3A200046696E69736865642100DC
:100B40002072616E67653A2000206D61783A20005E
:100B5000206D696E3A2000207369676D613A20004C
:100B6000206D65616E3A20003A207A3A2000206FAD
:100B7000662000205A00205900205800476F696EF7
:100B80006720746F3A00436C6F636B776973650A13
:100B900000436F756E7465722D0020446972656341
:100BA00074696F6E3A2000202020616E676C653A90
:100BB00020005374617274696E6720726164697594
:100BC000733A2000506F736974696F6E696E6720A5
:100BD0007468652070726F62652E2E2E0A003F4E7B
:100BE000756D626572206F66206C65677320696E33
:100BF000206D6F76656D656E74206E6F7420706CFD
:100C000061757369626C652028302D3135292E0A93
:100C100000590058003F53616D706C652073697A0C
:100C200065206E6F7420706C61757369626C6520ED
:100C300028342D3530292E0A004D3438205A2D50B5
:100C4000726F6265205265706561746162696C697A
:100C5000747920546573740A003F285629657262BE
:100C60006F7365206C6576656C20697320696D70A3
:100C70006C61757369626C652028302D34292E0AE9
:100C80000024F4D43050C38E20C2A24017828B704F
:100C900011127A910D816CD90AA861E108C75866D2
:100CA00007615143061E4B5D05C145A7041A41115A
:100CB00004093D9803713931034036DB02653391F5
:100CC00002D4305402802E1D02632CEE01752AC519
:100CD00001B028A001102781018F2564012B244B2E
:100CE00001E0223401AC211F018D200D01801FFC89
:100CF00000841EED00971DDF00B81CD200E61BC665
:100D000000201BBC00641AB200B219A8000A19A086
:100D1000006A189900D117910040178B00B516840E
:100D20000031167E00B31579003A157300C7146FB1
:100D30000058146A00EE1366008813630025135EE2
:100D400000C7125B006C12570015125400C11151FC
:100D50000070114F0021114B00D61049008D104733
:100D6000004610440002104200C00F4000800F3EB9
:100D700000420F3C00060F3B00CB0E3800930E37AD
:100D8000005C0E3500270E3400F30D3200C10D312A
:100D900000900D3000600D2E00320D2D00050D2C41
:100DA00000D90C2B00AE0C2900850C29005C0C2707
:100DB00000350C27000E0C2600E80B2400C40B2481
:100DC00000A00B23007D0B23005A0B2100390B21BF
:100DD00000180B2000F80A1F00D90A1E00BB0A1ECB
:100DE000009D0A1D00800A1D00630A1C00470A1BA3
:100DF000002C0A1B00110A1A00F7091A00DD091954
:100E000000C4091900AB091900920917007B0918E1
:100E100000630917004C0916003609160020091650
:100E2000000A091500F5081500E0081400CC0814A4
:100E300000B8081400A4081400900813007D0812DC
:100E4000006B0813005808120046081200340811FD
:100E500000230811001208110001081100F007100A
:100E600000E0071000D0071000C0071000B0070F07
:100E700000A107100091070E0083070F0074070FF1
:100E80000065070E0057070E0049070E003B070DCF
:100E9000002E070E0020070D0013070D0006070D9A
:100EA00000F9060C00ED060D00E0060C00D4060C5F
:100EB00000C8060C00BC060C00B0060C00A4060B13
:100EC0000099060C008D060B0082060B0077060BBE
:100ED000006C060B0061060A0057060B004C060A60
:100EE0000042060A0038060A002E060A0024060AF6
:100EF000001A060A001006090007060A00FD050987
:100F000000F4050900EB050900E2050900D905090F
:100F100000D0050900C7050900BE050900B5050890
:100F200000AD050800A50509009C0508009405080A
:100F3000008C050800840508007C0508007405087D
:100F4000006C050700650508005D050700560508EB
:100F5000004E050700470507004005080038050753
:100F600000310507002A050700230507001C0506B8
:100F700000160507000F0507000805060002050713
:100F800000FB040600F5040700EE040600E8040672
:100F900000E2040700DB040600D5040600CF0406C7
:100FA00000C9040600C3040600BD040600B7040619
:100FB00000B1040500AC040600A6040600A0040568
:100FC000009B04060095040500900406008A0405B1
:100FD0000085040500800406007A040500750405F8
:100FE00000700405006B040500660405006104053B
:100FF000005C04050057040500520405004D04057B
:101000000048040500430405003E0404003A0405BA
:101010000035040500300404002C040500270404F6
:1010200000230405001E0404001A0404001604052D
:1010300000110404000D0404000904050004040464
:101040000000040400FC030400F8030400F403049B
:1010500000F0030400EC030400E8030400E40304CC
:1010600000E0030400DC030400D8030400D40304FC
:1010700000D0030400CC030400C8030300C503032D
:101080000024F404D9201BC40C5C0E9804C4095F2E
:101090000265077101F405F900FB04B300480487F9
:1010A00000C10369005803550003034500BE023A1E
:1010B000008402310053022A002902250004022084
:1010C00000E4011C00C8011900AF011700980114C9
:1010D0000084011300710110006101100051010E24
:1010E0000043010D0036010B002B010B0020010B0A
:1010F00000150109000C01090003010800FB0008AC
:1011000000F3000800EB000700E4000600DE000624
:1011100000D8000600D2000600CC000500C700057C
:1011200000C2000500BD000400B9000400B50004C1
:1011300000B1000400AD000400A9000400A50003F4
:1011400000A20003009F0004009B0003009800031E
:10115000009500020093000300900003008D000240
:10116000008B000300880002008600020084000358
:1011700000810002007F0002007D0002007B00026F
:10118000007900020077000100760002007400027E
:101190000072000100710002006F0002006D00018A
:1011A000006C0002006A0001006900020067000193
:1011B0000066000100650001006400020062000199
:1011C0000061000100600001005F0002005D00019D
:1011D000005C0001005B0001005A000100590001A1
:1011E00000580001005700010056000100550001A1
:1011F00000540001005300000053000100520001A0
:101200000051000100500001004F0001004E00009D
:10121000004E0001004D0001004C0001004B000099
:10122000004B0001004A0001004900010048000095
:101230000048000100470001004600000046000190
:10124000004500000045000100440001004300008B
:101250000043000100420000004200010041000084
:101260000041000100400001003F0000003F00017C
:10127000003E0000003E0001003D0000003D000176
:10128000003C0000003C0000003C0001003B00006E
:10129000003B0001003A0000003A00010039000064
:1012A000003900010038000000380000003800015B
:1012B0000037000000370001003600000036000053
:1012C0000036000100350000003500000035000147
:1012D000003400000034000000340001003300003E
:1012E0000033000000330001003200000032000033
:1012F0000032000100310000003100000031000127
:10130000003000000030000000300001002F00001D
:10131000002F0000002F0000002F0001002E000011
:10132000002E0000002E0001002D0000002D000006
:10133000002D0000002D0001002C0000002C0000FA
:10134000002C0000002C0001002B0000002B0000EE
:10135000002B0000002B0001002A0000002A0000E2
:10136000002A0000002A00010029000000290000D6
:1013700000290000002900000029000100280000C9
:1013800000280000002800000028000000280001BC
:1013900000270000002700000027000000270000B1
:1013A00000270001002600000026000000260000A3
:1013B0000026000000260001002500000025000096
:1013C0000025000000250000002500000025000188
:1013D000002400000024000000240000002400007D
:1013E000002400010023000000230000002300006F
:1013F0000023000000230000002300000023000160
:101400000022000000220000002200000022000054
:101410000022000000220001002100000021000045
:101420000021000000210000002100000021000038
:10143000002100010020000000200000002000002A
:10144000002000000020000000200000002000001C
:1014500000200001001F0000001F0000001F00000E
:10146000001F0000001F0000001F0000001F0001FF
:10147000001E0000001E0000001E0000001E0000F4
:10148000006265640A002C2073797374656D2073A3
:10149000746F7070656421204865617465725F497E
:1014A000443A200048656174696E67206661696C22
:1014B00065640048656174696E67206661696C6582
:1014C000640048656174696E67206661696C656473
:1014D0000048656174696E67206661696C656400C7
:1014E000506C656173652072657365740050524974
:1014F0004E5445522048414C544544005072696E48
:101500007465722068616C7465642E206B696C6C04
:1015100028292063616C6C6564210A0000000000CA
:1015200000000000000000005761726E696E673AAB
:1015300020486F6D696E672042756D702044697632
:1015400069736F72203C20310A000000A040000047
:10155000A0400000004000004E4300005C4300003B
:101560002A43FFFFFF4572726F72207772697469B8
:101570006E6720746F20454550524F4D210A002957
:101580000A002062797465733B2063726320005304
:10159000657474696E67732053746F726564202874
:1015A00000202863616C63756C6174656429210A8D
:1015B0000020213D2000454550524F4D20435243CD
:1015C000206D69736D61746368202D202873746FBA
:1015D000726564292000290A002062797465733BD2
:1015E0002063726320002073746F726564207365DA
:1015F0007474696E67732072657472696576656468
:10160000202800204D61726C696E3D563338290ADE
:101610000028454550524F4D3D00454550524F4DD5
:101620002076657273696F6E206D69736D61746386
:1016300068200000060900FE070192032120FFFF39
:1016400008FF07FF00000006000001070706020070
:1016500080808080800080030202060105A0A00532
:1016600007070600005050F850F8505005070706CD
:1016700000002078A07028F020050707060000C0B1
:10168000C810204098180507070600006090A04089
:10169000A89068020303060104C040800307070600
:1016A0000100204080808040200307070601008061
:1016B00040202020408005050506000120A870A8D4
:1016C000200505050600012020F82020020303065E
:1016D00002FFC04080050101060003F80202020675
:1016E0000200C0C005050506000108102040800565
:1016F0000707060000708888888888700307070637
:10170000010040C040404040E0050707060000706F
:101710008808708080F8050707060000F810201080
:101720000808F005070706000010305090F8101068
:10173000050707060000F880F0080888700507070D
:10174000060000708080F08888700507070600009A
:10175000F808102020202005070706000070888860
:101760007088887005070706000070888878080868
:1017700070020505060200C0C000C0C002060606D1
:1017800002FFC0C000C04080040707060000102010
:101790004080402010050303060002F800F804070B
:1017A0000706010080402010204080050707060042
:1017B00000708808102000200507070600007088C8
:1017C0000868A8A870050707060000708888F888D0
:1017D0008888050707060000F08888F08888F005EB
:1017E000070706000070888080808870050707065C
:1017F0000000F08888888888F0050707060000F850
:101800008080F08080F8050707060000F88080F0EF
:10181000808080050707060000708880B88888707F
:10182000050707060000888888F888888801070768
:101830000602008080808080808005070706000007
:10184000381010101090600507070600008890A05F
:10185000C0A09088050707060000808080808080F7
:10186000F805070706000088D8A888888888050733
:10187000070600008888C8A898888805070706001A
:101880000070888888888870050707060000F0883F
:1018900088F080808005070706000070888888A887
:1018A0009068050707060000F08888F0A09088057A
:1018B0000707060000788080700808F00507070613
:1018C0000000F820202020202005070706000088BF
:1018D00088888888887005070706000088888888B7
:1018E0008850200507070600008888888888A85047
:1018F00005070706000088885020508888050707DC
:101900000600008888885020202005070706000070
:10191000F80810204080F8030707060100E08080E7
:10192000808080E005050506000180402010080346
:101930000707060100E02020202020E00503030621
:101940000004205088050101060000F8020202068A
:1019500002058040050505060000700878887805B6
:1019600007070600008080B0C88888F005050506D6
:10197000000070808088700507070600000808686E
:10198000988888780505050600007088F88070053D
:1019900007070600003048E04040404005060606C4
:1019A00000FF7088887808700507070600008080AF
:1019B000B0C8888888010707060200800080808000
:1019C00080800308080601FF200020202020A0407E
:1019D000040707060000808090A0C0A090030707BE
:1019E000060100C04040404040E0050505060000FB
:1019F000D0A8A8A8A8050505060000B0C888888852
:101A00000505050600007088888870050606060032
:101A1000FFF08888F080800506060600FF78888839
:101A2000780808050505060000B0C8808080050517
:101A30000506000070807008F004070706000040EB
:101A400040E0404040300505050600008888889841
:101A500068050505060000888888502005050506EC
:101A600000008888A8A850050505060000885020B9
:101A700050880506060600FF8888887808700505E6
:101A800005060000F8102040F803070706010020B3
:101A9000404080404020010707060200808080808F
:101AA000808080030707060100804040204040807E
:101AB0000502020600026890000000060000000017
:101AC0000006000000000006000000000006000004
:101AD00000000006000000000006000000000006F4
:101AE00000000000000600000000000600000000EA
:101AF00000060000000000060000000000060000D4
:101B000000000006000000000006000000000006C3
:101B100000000000000600000000000600000000B9
:101B200000060000000000060000000000060000A3
:101B30000000000600000000000600000000000693
:101B40000000000000060000000000060000000089
:101B50000006000000000006000000000006000073
:101B60000000000600000000000600000000000663
:101B70000000000000060000000000060000000059
:101B800000060000010707060200800080808080B8
:101B9000800507070600002070A8A0A87020050790
:101BA00007060000304040E04050A805050506004B
:101BB000008870507088050707060000885020F8DC
:101BC00020F82001070706020080808000808080C6
:101BD000050808060000304820505020906003019E
:101BE00001060107A0050707060000F888B8B8B885
:101BF00088F8050707060001700878887800F8055E
:101C000005050600012850A0502805030306000121
:101C1000F8080802020206020640800507070600CF
:101C200000F888A88898A8F8050101060006F804BD
:101C3000040406000360909060050707060000207A
:101C400020F8202000F804050506000360902040DD
:101C5000F0030505060003E020E020E00202020692
:101C6000020640800508080600FF8888888898E8F2
:101C700080800507070600007898987818181802E1
:101C80000202060202C0C00202020602FF408003F6
:101C9000050506000340C04040E0050707060001B7
:101CA000708888887000F8050505060001A0502896
:101CB00050A00507070600008890A858B808080536
:101CC00007070600008890B84898203805080806DD
:101CD0000000C040C048D8380808050707060000C3
:101CE0002000204080887005080806000040200081
:101CF0007088F888880508080600001020007088A1
:101D0000F888880508080600002050007088F888C8
:101D1000880508080600006890007088F888880523
:101D200008080600005000708888F88888050808B0
:101D30000600002050207088F888880507070600F4
:101D4000003860A0B8E0A0B80508080600FF708859
:101D5000808088702060050808060000402000F898
:101D600080F080F8050808060000081000F880F0F0
:101D700080F8050808060000205000F880F080F880
:101D80000507070600005000F880F080F8030808F7
:101D9000060100804000E0404040E00308080601E2
:101DA00000204000E0404040E003080806010040F9
:101DB000A000E0404040E0030707060100A000E06B
:101DC000404040E0050707060000704848E84848E2
:101DD0007005080806000068900088C8A898880563
:101DE0000808060000402070888888887005080868
:101DF0000600001020708888888870050808060092
:101E00000020500070888888700508080600006867
:101E100090007088888870050808060000500070DF
:101E2000888888887005050506000188502050883C
:101E30000508080600FF1070A8A8A8A870400508AB
:101E400008060000402088888888887005080806F1
:101E5000000010208888888888700508080600001F
:101E60002050008888888870050808060000500007
:101E70008888888888700508080600001020885027
:101E8000202020200509090600FFC0407048487046
:101E90004040E00408080601FF609090A09090E0A8
:101EA0008005080806000040200070087888780542
:101EB00008080600001020007008788878050808D7
:101EC0000600002050007008788878050808060091
:101ED00000689000700878887805070706000050B1
:101EE00000700878887805080806000020502070E7
:101EF00008788878050606060000D02878A0A85043
:101F00000506060600FF7080887020600508080638
:101F100000004020007088F8807005080806000066
:101F20001020007088F88070050808060000205016
:101F3000007088F880700507070600005000708860
:101F4000F8807003080806010080400040C040404F
:101F5000E003080806010020400040C04040E003C4
:101F6000080806010040A00040C04040E003070709
:101F7000060100A00040C04040E005070706000041
:101F8000A040A0107888700508080600006890003E
:101F9000B0C88888880508080600004020007088BE
:101FA000888870050808060000102000708888885E
:101FB00070050808060000205000708888887005A9
:101FC0000808060000689000708888887005070778
:101FD000060000500070888888700505050600011D
:101FE0002000F800200507070600FF1070A8A8A829
:101FF000704005080806000040200088888898681E
:1020000005080806000010200088888898680508E0
:102010000806000020500088888898680507070691
:102020000000500088888898680509090600FF109C
:102030002000888888F808700407070601FFC04060
:1020400060506040E00508080600FF50008888885E
:102050007808705654726176206D696E005654721D
:102060006176206D696E005654726176206D696EDE
:1020700000566D696E00566D696E00566D696E0092
:10208000566D6178204500566D6178204500566D8B
:102090006178204500566D6178205A00566D617850
:1020A000205A00566D6178205A00566D617820598B
:1020B00000566D6178205900566D617820590056A0
:1020C0006D6178205800566D6178205800566D611A
:1020D000782058004D6F74696F6E00416D617820F3
:1020E0004500416D6178204500416D6178205A00BE
:1020F000416D6178205A00416D6178205900416D31
:102100006178205900416D6178205800416D6178F7
:10211000205800412D74726176656C00412D7472F7
:102120006176656C00412D72657472616374004163
:102130002D7265747261637400416363656C004164
:102140006363656C004D6F74696F6E0056652D6A30
:1021500065726B0056652D6A65726B0056652D6A57
:1021600065726B00567A2D6A65726B00567A2D6A1D
:1021700065726B0056792D6A65726B0056792D6A0F
:1021800065726B0056792D6A65726B0056782D6A00
:1021900065726B0056782D6A65726B0056782D6AF1
:1021A00065726B004D6F74696F6E00457374657076
:1021B000732F6D6D004573746570732F6D6D005ACC
:1021C00073746570732F6D6D005A73746570732F1F
:1021D0006D6D005973746570732F6D6D0059737454
:1021E0006570732F6D6D005873746570732F6D6D0E
:1021F000005873746570732F6D6D004D6F74696F47
:102200006E0053746570732F6D6D004A65726B00BC
:10221000416363656C65726174696F6E0056656CCD
:102220006F63697479005A204F6666736574005A4B
:10223000204F666673657400436F6E74726F6C0036
:1022400046696C2E204469612E0046696C2E20443C
:1022500069612E004F6666004F6E20004520696E52
:10226000206D6D3300436F6E74726F6C0070012CC3
:102270000190012701B0012201C0011D01F00118E8
:10228000011002130130020E0160020901900204E4
:1022900001C002FF000003FA004003F5008003F0D4
:1022A00000D003EB002004E6007004E100E004DC51
:1022B000004005D700C005D2004006CD00D006C8BA
:1022C000008007C3003008BE00F008B900C009B4A0
:1022D00000B00AAF00B00BAA00D00CA500000EA001
:1022E00000500F9B00C01096005012910000148CFB
:1022F00000C0158700B0178200B0197D00D01B7890
:1023000000001E730040206E0090226900F02464DB
:102310000040275F0090295A00E02B5500102E50F6
:102320000020304B0010324600E033410090353C35
:10233000001037370070383200A0392D00B03A282D
:1023400000A03B2300603C1E00103D1900903D148E
:1023500000103E0F00703E0A00C03E0500003F0026
:1023600000403FFBFF803FF6FFC03FF1FF45727228
:102370003A204D494E54454D502042454400457247
:10238000723A204D494E54454D50004D494E5445EA
:102390004D5020747269676765726564004572729A
:1023A0003A204D415854454D502042454400457215
:1023B000723A204D415854454D50004D41585445B6
:1023C0004D5020747269676765726564001FFFFF76
:1023D000FFFFFFFF600000000001FF400000000061
:1023E00000FF8000000000007F83CF00000C303F22
:1023F00087FF80000C301F867980000C000F8C3026
:10240000C7838C30E78C30CFC7CC31F38C30DCEC19
:10241000EC33B98C30D86C6C33198C30D06C0C33F5
:10242000198C30D86C0C33198C30DC6C0E3B198C49
:1024300030CF7C079F198C30C77C038F1940000078
:1024400000000002600000000000061FFFFFFFFF09
:10245000FFF8000000000000000000000000000085
:10246000000000000000000000000000000000006C
:10247000000000000000000000000000000000005C
:10248000000000000000000000000000000000004C
:10249000000000000000000000000000000000003C
:1024A000000000000000000000000000000000002C
:1024B000000000000000000000000000000000001C
:1024C000000000000000000000000000000000000C
:1024D00000000000000000000000000000000000FC
:1024E00000000000000000000000000000000000EC
:1024F00000000000000000000000000000000000DC
:1025000000000000000000000000000000000000CB
:1025100000000000000000000000000000000000BB
:1025200000000000000000000000000000000000AB
:10253000000000000000000000000000000000009B
:10254000000000000000000000000000000000008B
:10255000000000000000000000000000000000007B
:1025600000000700000380000000000000000000E1
:1025700000001FC0000FE07C03E0781C0781E0F042
:102580003E0E7FE0003FF07E07E0FC1C0381C1F8B7
:102590003F0E7FF8007FF07E07E0FC1C03C3C1F80C
:1025A0003F0E7BFE01FEF07F0FE1FE1C01C383FCAA
:1025B0003F8E7CFF87F9F0770EE1FE1C01E783FC7C
:1025C0003B8E7F7FCFF7F0779EE1CE1C00E7039C28
:1025D0003BCE7F9FFFCFF0739CE3CF1C00FF079E95
:1025E00039CE7FE7FF3FF073FCE3871C007E070EC8
:1025F00039EE7FFBFEFFF071F8E3871C007E0F0FC2
:1026000038EE7FFCF9FFF071F8E7FF9C003C0FFF0C
:1026100038FE7FFF27FFF070F0E7FF9C003C0FFFC4
:10262000387E7FFFDFFFF070F0EFFFDC003C1FFF24
:10263000B87E7FDFFFDFF07060EF03DFF83C1E073E
:10264000B83E7FC7FF1FF07060EE01DFF83C1C034F
:10265000B83E7FC3FE1FF07000EE01DFF83C1C03A4
:10266000B81E7FC3FE1FF000000000000000000045
:1026700000007FC3DE1FF07FFFFFFFFFFFFFFFFFB4
:10268000FFFE7FC3DE1FF07FFFFFFFFFFFFFFFFFA7
:10269000FFFE7FC3DE1FF07C3FFAFBFFFFFFFD7AEA
:1026A000BFFE7FC3DE1FF07D9FFBFFFFFFFFFF7EAE
:1026B000F7FE7FC3DE1FF07D931A8A18E38C451A5C
:1026C000A2DE3FC3DE0FF07C2DCACAD6E924CD6A54
:1026D000B6BE1F83DE07E07DA36A9AD6E926656A47
:1026E000B63E0603DE01807D910A8AD8E38C451A46
:1026F000B37E0003DE00007FFFFFFFFEEFFFFFFF62
:10270000FF7E0003DE00007FFFFFFFF1EFFFFFFF12
:10271000FEFE0003DE00007FFFFFFFFFFFFFFFFF65
:10272000FFFE0003DE00007FFFFFFFFFFFFFFFFF54
:10273000FFFE0003DE0000000000000000000000BB
:1027400000000001DC0000000000000000000000AC
:102750000000000050000000000000000000000029
:102760000000000000000000000000000000000069
:102770000000000000000000000000000000000059
:102780000000000000000000000000000000000049
:102790000000000000000000000000000000000039
:1027A0000000000000000000000000000000000029
:1027B0000000000000000000000000000000000019
:1027C0000000000000000000000000000000000009
:1027D00000000000000000000000000000000000F9
:1027E00000000000000000000000000000000000E9
:1027F00000000000000000000000000000000000D9
:1028000000000000000000000000000000000000C8
:1028100000000000000000000000000000000000B8
:1028200000000000000000000000000000000000A8
:102830000000000000000000000000000000000098
:102840000000000000000000000000000000000088
:1028500000004578747275646572004D6F7665206E
:102860005A004D6F76652059004D6F7665205800EF
:1028700050726570617265004D3530320A4D3530E9
:102880003000526573746F7265206661696C7361A4
:102890006665004C6F61642073657474696E67735C
:1028A0000053746F72652073657474696E6773008A
:1028B000496E697469616C697A6520454550524F6B
:1028C0004D0046696C616D656E74004D6F74696F83
:1028D0006E0054656D7065726174757265004D614E
:1028E000696E0050726568656174204142532063CF
:1028F0006F6E66005072656865617420504C4120AF
:10290000636F6E66005049442D44005049442D4485
:10291000005049442D49005049442D490050494434
:102920002D50005049442D500046616E2073706553
:1029300065640046616E207370656564004265647D
:1029400000426564004E6F7A7A6C65004E6F7A7A49
:102950006C6500436F6E74726F6C0053746F7265B8
:102960002073657474696E67730042656400426524
:1029700064004E6F7A7A6C65004E6F7A7A6C6500EF
:1029800046616E2073706565640046616E207370E9
:102990006565640054656D7065726174757265007B
:1029A00000002100240027002A000000220025004A
:1029B00028002B000000200023002600290002022E
:1029C00002020202020204040404040404040303D5
:1029D00003030303030301010101010101010102DA
:1029E00004081020408001020408102040800102E9
:1029F00004081020408080402010080402010000DC
:102A000000010200090A000000000403080700009A
:102A100000000000000000000000000000004B4922
:102A20004C4C45442E2000202D20496E76616C6967
:102A300064206578747275646572206E756D626568
:102A40007220210A004572726F723A002020506C89
:102A5000616E6E6572427566666572427974657301
:102A60003A20002046726565204D656D6F72793A97
:102A70002000436F6D70696C65643A204F63742069
:102A8000323120323031370A00207C2041757468A1
:102A90006F723A20284F6C6C79290A003230313736
:102AA0002D30362D30342031323A303000204C6118
:102AB000737420557064617465643A2000312E315E
:102AC0002E330A004D61726C696E0020536F66747C
:102AD000776172652052657365740A0020576174CE
:102AE0006368646F672052657365740A00204272E0
:102AF0006F776E206F75742052657365740A0020BD
:102B000045787465726E616C2052657365740A0055
:102B1000506F77657255700A0073746172740A00A1
:102B2000456E6473746F70732025632025632025C0
:102B30006320256300205A3A0020593A0020583A71
:102B400000656E6473746F7073206869743A200056
:102B500000060900FE000000000001090008FE0058
:102B60000005080806000040F0C88888987810051D
:102B70000808060000C0F88888888888F8050505D8
:102B80000600012030F830200508080600002070FB
:102B9000F820202020E00509090600FF2070A8A8E1
:102BA000B8888870200509090600FFE080C0B0A839
:102BB000283028280509090600FFF8A88888888891
:102BC00088A8F8050A0A0600FE205050505088A830
:102BD000A8887003030306000340A0405A00590070
:102BE0005800092000000000000000000000000064
:102BF000007FFFE000000000000000000000000077
:102C00007000E00000000000000000000000006113
:102C1000F86000000000000000000000000041F823
:102C20002000000000000000000000000040F02034
:102C300000000000000000000000000040602000D4
:102C400000000000000000000000005801A07F808C
:102C5000000000000000004104005C63A0FFC00011
:102C60000000000000002082005EF7A0FFC000000E
:102C700000000000002082005EF7A0FFC0000000FE
:102C8000000000004104005C63A07F8000000000A1
:102C90000000008208005801A07F800000000000B2
:102CA0000001041000406020FFC000000000000090
:102CB0000104100040F020FFC000000000000000F0
:102CC00082080041F820FFC0000000000000004121
:102CD000040061F8603F00000000000000000000F8
:102CE000007000E01E0000000000000001FFFF80F7
:102CF0007FFFE00C0000000000000001FFFF8000EB
:102D000000000000000000000000000000007FFF45
:102D1000E00000000000000000000000007000E083
:102D2000000000000000000000000000630C6000D4
:102D30000000000000000000000000470E2000001E
:102D4000000000000000000000004F0F2000000005
:102D50000000000000000000005F0FA00000000065
:102D600000000000000000005E07A07F800000005F
:102D700000000000410400406020FFC0000000008F
:102D800000000020820040F020FFC0000000000092
:102D9000000020820040F020FFC000000000000082
:102DA000004104004060207F80000000000000001F
:102DB0008208005E07A07F80000000000000010480
:102DC00010005F0FA0FFC000000000000001041011
:102DD000004F0F20FFC0000000000000008208002C
:102DE000470E20FFC0000000000000004104006307
:102DF0000C603F00000000000000000000007000B8
:102E0000E01E0000000000000001FFFF807FFFE0E7
:102E10000C0000000000000001FFFF8000000043E4
:102E20006F6E74726F6C00507265706172650054E1
:102E3000756E6500496E666F2073637265656E001E
:102E4000486F6D652025732573257320666972733D
:102E500074002066697273740A005A0059005800A1
:102E6000486F6D6520006563686F3A0054484552AD
:102E70004D414C2052554E4157415900546865729E
:102E80006D616C2052756E61776179002042403A25
:102E90000020403A00202F0020423A00202F00203E
:102EA000543A006F6B0048656174696E6720646F07
:102EB0006E652E003F0A0020573A004525692025FF
:102EC00073004D616C79616E204D31353020726533
:102ED0006164792E004D616C79616E204D31353021
:102EE000204F66662E00205A3A0020593A002043AF
:102EF0006F756E7420583A0020453A00205A3A0007
:102F000020593A00583A004E6F2063617365206C77
:102F1000696768740A0048617264636F646564205D
:102F200044656661756C742053657474696E67736B
:102F3000204C6F616465640A0020204D38353120D3
:102F40005A005A2D50726F6265204F666673657421
:102F500020286D6D293A0A002044002049002020D5
:102F60004D333031205000504944207365747469EA
:102F70006E67733A0A002046002042002048002075
:102F8000204D3134352053004D6174657269616C98
:102F90002068656174757020706172616D6574651B
:102FA00072733A0A00205A0020204D3432302053E8
:102FB000004175746F20426564204C6576656C69CC
:102FC0006E673A0A00205A0020590020204D323006
:102FD00036205800486F6D65206F66667365743AD9
:102FE0000A00204500205A002059002058002042A5
:102FF0000020540020204D323035205300416476AB
:10300000616E6365643A20533C6D696E5F66656509
:1030100064726174653E20543C6D696E5F747261C8
:1030200076656C5F66656564726174653E20423CDE
:103030006D696E5F7365676D656E745F74696D65EC
:103040005F6D733E20583C6D61785F78795F6A658B
:10305000726B3E205A3C6D61785F7A5F6A65726B75
:103060003E20453C6D61785F655F6A65726B3E0A24
:103070000020540020520020204D323034205000D7
:10308000416363656C65726174696F6E2028756E4B
:103090006974732F7332293A20503C7072696E74D0
:1030A0005F616363656C3E20523C7265747261635C
:1030B000745F616363656C3E20543C747261766535
:1030C0006C5F616363656C3E0A00204500205A0016
:1030D00020590020204D3230312058004D61786950
:1030E0006D756D20416363656C65726174696F6EA7
:1030F0002028756E6974732F7332293A0A002045AF
:1031000000205A0020590020204D32303320580032
:103110004D6178696D756D20666565647261746571
:10312000732028756E6974732F73293A0A0020453D
:1031300000205A0020590020204D393220580053D9
:10314000746570732070657220756E69743A0A0038
:1031500020204D3230302044300A0020204D3230C3
:10316000302044002044697361626C65640A004643
:10317000696C616D656E742073657474696E6773D4
:103180003A0020204D3134392043203B20556E69D0
:10319000747320696E2043656C736975730A00202F
:1031A00020473231202020203B20556E6974732047
:1031B000696E206D6D0A00526573656E643A200079
:1031C0006F6B0020746F6F206C6F6E672065787472
:1031D000727573696F6E2070726576656E74656462
:1031E0000A0020636F6C6420657874727573696F70
:1031F0006E2070726576656E7465640A0062757320
:10320000793A2070617573656420666F7220696E0B
:103210007075740A00627573793A20706175736510
:103220006420666F7220757365720A006275737927
:103230003A2070726F63657373696E670A004B4959
:103240004C4C45442E20004B494C4C206361757317
:10325000656420627920746F6F206D7563682069E2
:103260006E6163746976652074696D65202D2063D5
:10327000757272656E7420636F6D6D616E643A2055
:10328000000008CC11241FBECFEFD0E4DEBFCDBFBD
:1032900013E0A0E0B1E0E2E0F6EB01E00BBF02C01A
:1032A00007900D92A637B107D9F72FE0A6E7B3E054
:1032B00001C01D92AA38B207E1F719E1C2E4D9E1D1
:1032C00004C02197FE010E94B2DAC134D107C9F7C8
:1032D0000E94D6C80C94FFDA0C9400002F923F9203
:1032E0004F925F926F927F928F929F92AF92BF9216
:1032F000CF92DF92EF92FF920F931F93CF93DF93C2
:10330000CDB7DEB7C657D1090FB6F894DEBF0FBEF2
:10331000CDBF0091270D20E6029F800111240356A6
:103320001C4F80919E0580FF1AC0E6E6FEE2849164
:103330007F013FEFE31AF30A811102C0780104C054
:103340000E94D93CF701F3CFD7018D917D018823ED
:1033500019F00E94D93CF8CF8AE00E94D93C81E064
:1033600090E090932A0F8093290F10921E051092DF
:103370001D058FE3809321051092200510921F05F3
:103380001092900310929103109292031092930363
:10339000F80180810F5F1F4F8032D1F38E34B1F47A
:1033A000818190ED980F9A3020F08D3211F08B32A0
:1033B00069F43296DF0131962C9120532A30D0F3F4
:1033C000CD01FC01019620812032D9F3F0932C0F1E
:1033D000E0932B0F7F01BFEFEB1AFB0A10816AE22B
:1033E00070E0C7010E94C7DA009731F0FC01319705
:1033F00080818032E1F311821D3429F0143519F0F7
:10340000173409F0CBC0F70180812FEFE21AF20ADE
:103410008032C9F380538A3008F0C0C01093210570
:1034200020911F05309120054AE03196429FC0014E
:10343000439F900D1124DF0111972C91022E000C57
:10344000330B20533109280F391F808180538A3074
:1034500060F33093200520931F05DF0131968C9196
:103460008032D9F31D3449F000912B0F40911D0596
:1034700050911E0561E070E054C02E31310579F0A5
:103480003CF42731310559F02C31310569F707C07B
:103490002537310521F0203A43E0340729F7B0936E
:1034A0001E05A0931D057AC0813209F444C09FEB2C
:1034B000B92EB80E89E1A82EAB1408F45DC0DF0167
:1034C000FD01908111969032D9F3A0EDA90FAA3099
:1034D00008F046C07F018B2C912C6401A3E0D594A9
:1034E000C794AA95E1F7C60180579C4F6C018B2DBC
:1034F0008770DB0102C0AA0FBB1F8A95E2F7CD01DE
:10350000D6019C91892B8C93E114F10499F1E01A76
:10351000D401AA58BC4FEC92808181548A3188F53D
:10352000DF01FD0131968C918111BECF50931E05B4
:1035300040931D0533C01D3409F0B9CF2032310549
:1035400009F0B5CFF0931E05E0931D0563E270E02E
:10355000CF010E94C7DA009709F1DC011C921EC05E
:10356000A3EDA90FA23008F4B5CF9B3211F00C9453
:10357000ED32B0CFE12CCCCF4115510569F6AD014C
:10358000CBCFDF0131969C9190539A30D0F3CD018F
:10359000FC010196A081A032D9F3C2CF8091210510
:1035A0008D3411F40C940624843511F40C94B0324B
:1035B000873411F00C94CC3280911F059091200536
:1035C0008C31910509F4BAC57CF4843091053CF442
:1035D00082309105ACF597FF27C00C94E632049732
:1035E00009F466C50C94E6328A32910511F40C9404
:1035F00022234CF48D31910509F4EFC64E9709F45E
:10360000F0C60C94E6328B35910509F46EC78C3503
:10361000910509F46FC78A35910511F00C94E632D3
:1036200010929C030C94E63280912901882311F4B6
:103630000C94E6320E94203C0E94B5C00C94E63205
:1036400020912901222311F40C94E63211E0029713
:1036500009F010E00E94203C82E50E94F63B88239E
:1036600009F42AC10E94BF3B6B017C014090DD0D33
:103670005090DE0D6090DF0D7090E00D2091E10D17
:103680003091E20D4091E30D5091E40D2AA33BA34C
:103690004CA35DA38091100B9091110BA091120B84
:1036A000B091130B8EA39FA3A8A7B9A72091140BC9
:1036B0003091150B4091160B5091170B2EA73FA779
:1036C00048AB59AB20E030E0A901C701B6010E9428
:1036D00020D3882309F4D2C4A30192016EA17FA153
:1036E00088A599A50E9420D381110DC02AA13BA1D4
:1036F0004CA15DA16EA57FA588A999A90E9420D3A0
:10370000882309F4BBC420E030E0A901C701B60159
:103710000E9420D3881F8827881F181309C080E0C3
:1037200090E0A0E8BFE38AAF9BAFACAFBDAF08C0ED
:1037300020E030E040E85FEB2AAF3BAF4CAF5DAF3D
:10374000A30192016EA17FA188A599A50E9477D7B8
:103750006AAB7BAB8CAB9DAB2AA13BA14CA15DA11D
:103760006EA57FA588A999A90E9477D76EAB7FAB7C
:1037700088AF99AF2AA93BA94CA95DA9CA01B90193
:103780000E9486D34B015C012EA93FA948AD59ADDB
:10379000CA01B9010E9486D39B01AC01C501B401E5
:1037A0000E9478D70E9426DA6AA77BA78CA79DA7DC
:1037B00020E030E040E05FE30E9486D34B015C01F3
:1037C000A7019601C701B6010E9486D36B017C0157
:1037D000A5019401C501B4010E9486D39B01AC01EF
:1037E000C701B6010E9477D70E9426DA9B01AC017F
:1037F0006AAD7BAD8CAD9DAD0E9486D34B015C0163
:103800002EA13FA148A559A5C301B2010E9478D7B6
:1038100020E030E040E05FE30E9486D36B017C0152
:103820006EA97FA988AD99AD90582AA53BA54CA556
:103830005DA50E9472D89B01AC01C501B4010E9434
:1038400086D39B01AC01C701B6010E9478D7A301C2
:1038500092010E9477D76B017C012EA53FA548A954
:1038600059A96AA17BA18CA19DA10E9478D720E0D3
:1038700030E040E05FE30E9486D32B013C012AA5A3
:103880003BA54CA55DA56AA97BA98CA99DA90E9411
:1038900072D89B01AC01C501B4010E9486D39B0183
:1038A000AC01C301B2010E9478D72AA13BA14CA16F
:1038B0005DA10E9477D714C089E40E94F63B88235B
:1038C00029F00E94BF3B6B017C0103C0C12CD12CAD
:1038D00076018AE40E94F63B8823D9F00E94BF3B20
:1038E0006EA77FA788AB99AB20E030E0A901C701A4
:1038F000B6010E9420D381111AC020E030E0A90156
:103900006EA57FA588A999A90E9420D381110FC017
:10391000B5C320E030E0A901C701B6010E9420D361
:10392000882309F4ABC31EA61FA618AA19AAD7019B
:10393000C601B0588AA39BA3ACA3BDA32EA53FA5E7
:1039400048A959A950582EA33FA348A759A79C019D
:10395000AD01BC01CD010E9486D34B015C012EA1BB
:103960003FA148A559A5CA01B9010E9486D39B0170
:10397000AC01C501B4010E9478D70E9426DA2E96C8
:103980006CAF7DAF8EAF9FAF2E978091DD0D909184
:10399000DE0DA091DF0DB091E00D8AA79BA7ACA72B
:1039A000BDA7A7019601BC01CD010E9478D76AAFDF
:1039B0007BAF8CAF9DAF2091E10D3091E20D409136
:1039C000E30D5091E40D2AAB3BAB4CAB5DAB2EA5A8
:1039D0003FA548A959A96AA97BA98CA99DA90E94BC
:1039E00078D722966CAF7DAF8EAF9FAF2297809134
:1039F000100B9091110BA091120BB091130B269606
:103A00008CAF9DAFAEAFBFAF26972AAD3BAD4CADEF
:103A10005DADBC01CD010E9477D76B017C01209187
:103A2000140B3091150B4091160B5091170B2A96E1
:103A30002CAF3DAF4EAF5FAF2A9722962CAD3DAD78
:103A40004EAD5FAD22972A966CAD7DAD8EAD9FAD2C
:103A50002A970E9477D74B015C018091E50D9091E8
:103A6000E60DA091E70DB091E80D66968CAF9DAF85
:103A7000AEAFBFAF66979C01AD016091180B70911E
:103A8000190B80911A0B90911B0B0E9477D76EAB8C
:103A90007FAB88AF99AF20911C0B30911D0B4091EB
:103AA0001E0B50911F0B62962CAF3DAF4EAF5FAF18
:103AB00062978091E90D9091EA0DA091EB0DB09184
:103AC000EC0D6A968CAF9DAFAEAFBFAF6A97A70102
:103AD00096016AA17BA18CA19DA10E9486D32B0196
:103AE0003C01A50194016EA17FA188A599A50E9422
:103AF00086D39B01AC01C301B2010E9478D72B0190
:103B00003C01A50194016AA17BA18CA19DA10E9409
:103B100086D34B015C01A70196016EA17FA188A508
:103B200099A50E9486D39B01AC01C501B4010E94F6
:103B300077D7A30192010E94F7D76B017C0120E0A7
:103B400030E0A9010E9420D387FF0AC02BED3FE09F
:103B500049EC50E4C701B6010E9478D76B017C01A3
:103B6000112351F02BED3FE049EC50E4C701B601C1
:103B70000E9477D76B017C0120E030E0A901C701EA
:103B8000B6010E9420D3811126C026962CAD3DADF2
:103B90004EAD5FAD26976AA57BA58CA59DA50E941D
:103BA00020D3811118C02A962CAD3DAD4EAD5FAD2E
:103BB0002A976AA97BA98CA99DA90E9420D381116B
:103BC0000AC02BED3FE049EC50E4C701B6010E946A
:103BD00078D76B017C012E962CAD3DAD4EAD5FAD1F
:103BE0002E97C701B6010E9486D39B01AC010E94AB
:103BF00086D34B015C012EA93FA948AD59ADCA013E
:103C0000B9010E9486D39B01AC01C501B4010E9499
:103C100078D70E9426DA4B015C012FE632E143E8B7
:103C20005AE30E9420D387FD25C2C501B4010E943A
:103C30001AD90E94EBD87BAB6AAB672B21F421E049
:103C400030E03BAB2AABAAA8BBA8B50180E090E06E
:103C50000E9425D34B015C019B01AC01C701B60159
:103C60000E9472D86AA77BA78CA79DA7A501940183
:103C70006EA97FA988AD99AD0E9472D82E966CAFBF
:103C80007DAF8EAF9FAF2E976A962CAD3DAD4EADFA
:103C90005FAD6A9762966CAD7DAD8EAD9FAD62975C
:103CA0000E9477D7A50194010E9472D862966CAFEA
:103CB0007DAF8EAF9FAF62972AA53BA54CA55DA5B2
:103CC000CA01B9010E9486D320E030E040E05FE302
:103CD0000E9486D39B01AC0160E070E080E89FE326
:103CE0000E9477D76EAB7FAB88AF99AF66962CAD4D
:103CF0003DAD4EAD5FAD669729873A874B875C87B0
:103D00006A968CAD9DADAEADBFAD6A978D879E872F
:103D1000AF87B88B6091110170911201072E000CD2
:103D2000880B990B0E9427D32091A8013091A901FB
:103D30004091AA015091AB010E9486D32AE037ED51
:103D400043E25CE30E9486D326966CAF7DAF8EAFD4
:103D50009FAF26970E94797E9B01AC0128533F4F6D
:103D60004F4F5F4F2A962CAF3DAF4EAF5FAF2A97B4
:103D70004AA05BA06CA07DA022242394312CD12CDE
:103D8000AAA8BBA82A143B0409F430C10E94566AB1
:103D90000E94797EDC01CB012A962CAD3DAD4EAD63
:103DA0005FAD2A97821B930BA40BB50BB7FD10C018
:103DB0000E94797E9B01AC0128533F4F4F4F5F4FCC
:103DC0002A962CAF3DAF4EAF5FAF2A970E9478BFC7
:103DD000D39438E13D15ECF12EA93FA948AD59AD7A
:103DE0006EA17FA188A599A50E9486D34B015C0195
:103DF0002AA53BA54CA55DA5B201C3010E9486D3AF
:103E0000A50194010E9478D77B018C012EA93FA9BE
:103E100048AD59ADB201C3010E9486D34B015C018C
:103E20002AA53BA54CA55DA56EA17FA188A599A556
:103E30000E9486D39B01AC01C501B4010E9477D7D3
:103E40002B013C01C701D8018EA39FA3A8A7B9A746
:103E50004EC0B10180E090E00E9425D32AA53BA589
:103E60004CA55DA50E9486D34B015C010E946DD8D4
:103E70006B017C01C501B4010E9418DA4B015C01A1
:103E8000A70196016AA17BA18CA19DA10E9486D366
:103E90002B013C01A50194016EA57FA588A999A9D4
:103EA0000E9486D39B01AC01C301B2010E9478D766
:103EB0002B013C01A50194016AA17BA18CA19DA1CC
:103EC0000E9486D34B015C01A70196016EA57FA5D8
:103ED00088A999A90E9486D39B01AC01C501B401B0
:103EE0000E9477D76EA37FA388A799A7D12C9201B0
:103EF000A3016AAD7BAD8CAD9DAD0E9478D769837F
:103F00007A838B839C832EA13FA148A559A5229635
:103F10006CAD7DAD8EAD9FAD22970E9478D76D833D
:103F20007E838F8398872E962CAD3DAD4EAD5FADD1
:103F30002E9769857A858B859C850E9478D76987BD
:103F40007A878B879C8762962CAD3DAD4EAD5FAD79
:103F500062976D857E858F8598890E9478D76D8759
:103F60007E878F87988B80911F01882321F0CE0157
:103F700001960E94937BC090970389819A81AB81BF
:103F8000BC818E8B9F8BA88FB98F8D819E81AF81D5
:103F9000B8858A8F9B8FAC8FBD8F89859A85AB85BD
:103FA000BC858E8F9F8FA8A3B9A3AE01425E5F4FE1
:103FB000BE01665E7F4FCE0146960E94075326964D
:103FC000ECACFDAC0EAD1FAD26979E01235F3F4FBD
:103FD000AE01425E5F4FBE01665E7F4FCE014696E8
:103FE0000E94DA454FEF241A340ACACEC0909703D4
:103FF0008091100B9091110BA091120BB091130BAB
:104000008E8B9F8BA88FB98F8091140B9091150B7D
:10401000A091160BB091170B8A8F9B8FAC8FBD8F21
:104020008091180B9091190BA0911A0BB0911B0B5A
:104030008E8F9F8FA8A3B9A3AE01425E5F4FBE01D2
:10404000665E7F4FCE0146960E9407532696ECACE3
:10405000FDAC0EAD1FAD26972CE13BE0AE01425EFC
:104060005F4FBE01665E7F4FCE0146960E94DA45E5
:104070000E94D7390E94943C0C94E632E5E4FAE2BF
:1040800084918F010F5F1F4F882321F00E94D93C3C
:10409000F801F6CFE1E6F1E084918F010F5F1F4F49
:1040A000882311F40C94E6320E94D93CF801F4CF35
:1040B00080E50E94F63B882329F00E947B3B6B0140
:1040C0007C0103C0C12CD12C760183E50E94F63B14
:1040D000882361F00E94BF3B20E030E04AE754E4CF
:1040E0000E9486D30E94EBD86B017C010E94F06B8A
:1040F0000E94943C80912D0F90912E0FA0912F0F34
:10410000B091300FC80ED91EEA1EFB1E80915B01D4
:10411000811105C060E087E791E00E94F9850E9467
:10412000797EDC01CB018C199D09AE09BF09B7FD71
:1041300002C00C94E6320E9478BFF1CF0E94F06B6F
:1041400080E00E9432380E94B93C11E01093550182
:1041500088E50E94F63BE82E89E50E94F63B082F91
:104160008AE50E94F63BF82EE11004C0011104C05C
:10417000182705C0011102C010E001C0182F0E94CD
:10418000CD39111105C0E11003C0002309F444C06A
:1041900020E030E040EA50E46091F90D7091FA0DB2
:1041A0008091FB0D9091FC0D0E9478D76093180BC5
:1041B0007093190B80931A0B90931B0B2091E50DB4
:1041C0003091E60D4091E70D5091E80D0E94D8D94D
:1041D00018167CF419821A821B821C829E012F5FA2
:1041E0003F4F48E15BE061EE7DE08DED9DE00E9498
:1041F000A138111105C0E11003C0011107C00CC0A6
:1042000080E090E00E94257C1123B9F381E090E0EA
:104210000E94257C111103C0FF2009F4CFC08091BA
:10422000F70C882321F08091F80C81111EC060E00A
:1042300084EB91E00E94F985E6E6FEE284918F012D
:104240000F5F1F4F882321F00E94D93CF801F6CF61
:10425000E3EAF1E084918F010F5F1F4F882309F497
:10426000ADC00E94D93CF801F5CF0E943C3A409085
:10427000F10D5090F20D6090F30D7090F40D2091BF
:10428000F50D3091F60D4091F70D5091F80D2AA3E0
:104290003BA34CA35DA38091E50D9091E60DA09109
:1042A000E70DB091E80D8093180B9093190BA09334
:1042B0001A0BB0931B0B20E030E042EE52E4C30136
:1042C000B2010E9478D720E030E04CE052E40E9436
:1042D00077D74B015C016093100B7093110B8093A7
:1042E000120B9093130B20E030E04CED52E46AA1E6
:1042F0007BA18CA19DA10E9478D720E030E048E40A
:1043000052E40E9478D76B017C016093140B709388
:10431000150B8093160B9093170BA3019201C50107
:10432000B4010E9477D74B015C012FE632E143E8EC
:104330005AEB0E94D8D987FF02C00C94F73222E4CE
:1043400030E04EE453E4C501B4010E9420D31816B6
:1043500014F40C94F7322AA13BA14CA15DA1C70132
:10436000B6010E9477D76B017C012FE632E143E86A
:104370005AEB0E94D8D987FF02C00C94F73222E48E
:1043800030E04CE553E4C701B6010E9420D3181673
:1043900014F40C94F73219821A821B821C829E013B
:1043A0002F5F3F4F45EE5DE064E17BE080E19BE005
:1043B0000E94A13882E090E00E94257C0E943C3A55
:1043C0008091980E809355010E949F3C83E08093DA
:1043D0005A010E94A0B20C94E6320E9463620C94CF
:1043E000E63288E50E94F63B882319F00E94BF3B25
:1043F0000EC020E030E04CE052E46091DD0D7091A1
:10440000DE0D8091DF0D9091E00D0E9478D76E8BCC
:104410007F8B888F998F89E50E94F63B882319F05E
:104420000E94BF3B0EC020E030E048E452E46091BF
:10443000E10D7091E20D8091E30D9091E40D0E94E9
:1044400077D76B017C0169837A838B839C8340904F
:10445000F50D5090F60D6090F70D7090F80D2091CD
:10446000F10D3091F20D4091F30D5091F40D6E89E4
:104470007F89888D998D0E9477D74B015C012AEF47
:104480003EEF4BE052E40E94D8D987FF02C00C9463
:10449000E63222E430E04EE453E4C501B4010E9468
:1044A00020D3181614F40C94E632A3019201C7012C
:1044B000B6010E9477D76B017C012FE632E143E819
:1044C0005AEB0E94D8D987FF02C00C94E63222E44E
:1044D00030E04AE253E4C701B6010E9420D3181627
:1044E00014F40C94E6320C94163381E080939C0310
:1044F0000C94E63285E40E94F63BB82E811102C08E
:104500000E94F06B57EB852E51E0952E6DEDC62E77
:104510006DE0D62E74E0E72E7BE0F72E00E010E091
:10452000A12CD4018D914D010E94F63B8823F1F11D
:10453000F6012081318142815381E4962FAFE497C7
:10454000E5963FAFE597E6964FAFE697E7965FAF04
:10455000E7970E94BF3BD6016D937D938D939C930B
:104560001397E4962FADE497E5963FADE597E69671
:104570004FADE697E7965FADE79703301105B1F0D1
:104580000E9477D79B01AC01F70160817181828124
:1045900093810E9478D7D7016D937D938D939C93DF
:1045A0001397C8010E94273BAA24A3940F5F1F4FB3
:1045B000B4E0CB0ED11CE4E0EE0EF11C043011058A
:1045C00009F0AFCFAA2019F00E943C3A37C0BB20B7
:1045D000A9F1C090E90DD090EA0DE090EB0DF090BC
:1045E000EC0D2091860B3091870B4091880B5091F8
:1045F000890BC701B6010E9486D30E94E5D960935A
:104600005E0E70935F0E8093600E9093610EC701F3
:10461000B6010E94E4D82FB7F8946093B00A709363
:10462000B10A8093B20A9093B30A2FBF10924E0E34
:1046300010924F0E1092500E1092510E0E94A0B286
:104640000C94E63280912901882311F40C94E6320F
:1046500089E40E94F63B082F809194039091950382
:10466000892B21F00E948B3BF62E01C0F12C8AE4AD
:104670000E94F63B182F8091940390919503892B0B
:1046800021F00E948B3BE62E01C0E12C002341F07B
:10469000F4E0FF1510F00C944636E6EDF1E007C0AB
:1046A000112389F044E0A42EAE14B8F30CC0849119
:1046B0008F010F5F1F4F882311F40C94E6320E9484
:1046C000D93CF801F4CF0E94CD39002341F120916B
:1046D000240B3091250B4F2D4203B001439F700DE9
:1046E00011248091200B9091210B680F791F072EC8
:1046F000000C880B990B0E9427D32091F10D30916B
:10470000F20D4091F30D5091F40D0E9478D7609313
:10471000100B7093110B8093120B9093130B1123BA
:1047200041F12091260B3091270B5E2D5203B001F1
:10473000539F700D11242091220B3091230B620F97
:10474000731F072E000C880B990B0E9427D3209112
:10475000F50D3091F60D4091F70D5091F80D0E9436
:1047600078D76093140B7093150B8093160B90936E
:10477000170B80E50E94F63B8823A1F10E94AF3B16
:10478000882381F10023B1F020E030E04CE052E4D6
:104790006091100B7091110B8091120B9091130B83
:1047A0000E9477D76093100B7093110B8093120BBC
:1047B0009093130B1123B1F020E030E048E452E471
:1047C0006091140B7091150B8091160B9091170B43
:1047D0000E9478D76093140B7093150B8093160B7F
:1047E0009093170B86E40E94F63B882359F00E94B1
:1047F000BF3B20E030E0A9010E94D8D9181614F47C
:104800000C946D330E94B5C00C94E63280911F0564
:10481000909120058937910509F4EFC50CF08CC003
:104820008C35910509F4CBC40CF04EC08B34910546
:1048300009F4FEC24CF58231910509F4A1C4BCF41F
:1048400097FF02C00C94E632823091050CF44DC102
:10485000419711F00C94E63260E08BE192E00E9407
:10486000F9855E985E9815985E980C94E6328A32C7
:10487000910509F490C28033910509F4D5C24F9790
:1048800011F00C94E632B2C18235910509F46FC47F
:104890007CF48D34910509F4E9C20CF4CDC2813564
:1048A000910511F00C94E6320E94ABB30C94E63201
:1048B0008435910509F464C40CF45DC48535910513
:1048C00009F462C40C94E6328F36910509F43DC3B5
:1048D000C4F48B36910509F438C464F48936910523
:1048E00009F409C40CF02DC48836910509F4C2C23C
:1048F0000C94E6328D36910509F405C40CF4C7C357
:1049000011C38337910509F4E9C454F48137910543
:1049100009F4C5C30CF0DCC48BEA92E00E94847DEC
:104920008737910509F4FEC40CF060C58537910501
:1049300009F4E2C40C94E6328E32A1E09A0711F435
:104940000C94BF2D0CF063C08D3C910509F4C1C6D9
:104950005CF5883C910509F4CFC58CF4813991054B
:1049600009F451C58E3B910509F4D1C38C389105EA
:1049700011F00C94E6320E94C0B30C94E6328B3CEA
:10498000910509F41DC60CF03AC6893C910511F059
:104990000C94E6322EE4E22E2BE0F22E07EB11E02F
:1049A00034E0D32ED00EF2C58D3D910511F40C9458
:1049B000B22CECF4833D910509F42FC78C3D910591
:1049C00011F40C94A52C8E3C910511F00C94E63258
:1049D000B7EBAB2EB1E0BB2E1DEDC12E1DE0D12EED
:1049E0000BEFE02E0CE0F02E00E010E0DDC68C3284
:1049F000E1E09E0711F40C94F82C14F00C94212D96
:104A0000823E910511F40C94CB2C0C94E632853A3D
:104A100021E0920711F40C94E4307CF5813941E0F7
:104A2000940711F40C9484309CF48336A1E09A0727
:104A300011F40C94AA328039B1E09B0711F40C9464
:104A400081308F32914011F00C94E6320C94132E89
:104A50008A39F1E09F0709F41EC3843A21E09207E6
:104A600011F40C9488308239914011F00C94E632A4
:104A700080E00E9486390C94E632863F41E094073C
:104A800011F40C946532F4F4843FA1E09A0711F418
:104A90000C945F3214F00C9462328C3A914011F015
:104AA0000C94E6328BEFC82E8CE0D82E9DEDE92ECB
:104AB0009DE0F92E2AED222E2DE0322E00E010E0AE
:104AC0000C947E318335F3E09F0711F40C9474321B
:104AD000873E23E0920711F40C94AD32873F91405A
:104AE00011F00C94E6320C946832A0901D05B09041
:104AF0001E0580E50E94F63B882359F00E947B3B0F
:104B00006B017C0111E0672B682B692B31F410E0FD
:104B100004C010E0C12CD12C760183E50E94F63B45
:104B20008823F1F00E94BF3B20E030E04AE754E4E4
:104B30000E9486D30E94EBD86B017C01111112C038
:104B4000672B682B692B71F4A114B10459F0D501BE
:104B50008C91882339F061E0C5010E94188607C056
:104B6000112391F360E088E092E00E94F98583E0F0
:104B700090E090932A0F8093290F81E08093A20BFD
:104B80000E94F06B0E94943CC114D104E104F10432
:104B9000E9F080912D0F90912E0FA0912F0FB091E1
:104BA000300FC80ED91EEA1EFB1E0E94797EDC0162
:104BB000CB018C199D09AE09BF09B7FF13C08091C5
:104BC000A20B882379F00E9478BFEFCF8091A20BCF
:104BD000882319F00E9478BFF9CF60E085EF91E05B
:104BE0000E94F9851092A20B0C94E6328091820EFD
:104BF0009091830E019719F40E94797E08C060910C
:104C00008C0E70918D0E80918E0E90918F0E009172
:104C1000880E1091890E20918A0E30918B0E601BA8
:104C2000710B820B930B28EE33E040E050E00E94C2
:104C300014D78091840E9091850EA091860EB0912C
:104C4000870EBC01CD01620F731F841F951F3CE3CB
:104C5000C32ED12CE12CF12CA70196010E9414D770
:104C6000762E672ECA01B901A70196010E9414D7BA
:104C70006B017C01CA01B90128E130E040E050E05D
:104C80000E9414D74B015C01C9016DE671E00E94DE
:104C90008ADA8E010F5F1F4F6115710599F06F92CF
:104CA0007F92DF92CF929F928F929F938F937F9369
:104CB0006F938CE492E09F938F931F930F930E94C6
:104CC000B7D212C00097B1F06F927F92DF92CF926D
:104CD0009F928F929F938F938CE392E09F938F93F9
:104CE0001F930F930E94B7D20FB6F894DEBF0FBE8A
:104CF000CDBF36C081149104A104B10479F06F9244
:104D00007F92DF92CF929F928F9280E392E09F9367
:104D10008F931F930F930E94B7D2E6CFC114D10493
:104D2000E104F10469F06F927F92DF92CF9288E202
:104D300092E09F938F931F930F930E94B7D2D4CF8B
:104D40006F927F9284E292E09F938F931F930F93D1
:104D50000E94B7D20F900F900F900F900F900F906E
:104D600060E0C8010E941886E6E6FEE284917F01B9
:104D70009FEFE91AF90A882321F00E94D93CF70134
:104D8000F5CFB80180E692E00E9486448AE00E9456
:104D9000D93C0C94E63283E50E94F63B882311F45B
:104DA0000C94E6320E948B3B4B015C016F3F710516
:104DB00019F010F00C94E63280E50E94F63B88234F
:104DC00039F00E948B3B8B0177FF04C00C94E632D4
:104DD0000BE110E0F02EEBEBF1E0C80199272191F7
:104DE00031912817390731F0B2E0EB30FB07B9F702
:104DF0000C947F33E5E4FAE284918F010F5F1F4F3B
:104E0000882321F00E94D93CF801F6CFEDE6F2E0CC
:104E100084918F010F5F1F4F882311F40C94E632A9
:104E20000E94D93CF801F4CF0E94FB5C0C94E6325E
:104E30000E942EAF0C94E6328091820E9091830EE8
:104E4000019711F00C94E63282E090E09093830E8B
:104E50008093820E0E94797E60938C0E70938D0EEB
:104E600080938E0E90938F0E0C94E6320E949FAC2E
:104E70000C94E63288E690E00E94DB3D81110C94B0
:104E8000E63280919E0583FF02C00C94E63283E5F2
:104E90000E94F63B882311F40C94E6320E94BF3B3B
:104EA0000E94E4D87093810F6093800F80E00E948D
:104EB000CB9E0E94BF3B20E030E04AEA52E40E94D1
:104EC00020D318163CF00E949FAC60E083E892E08B
:104ED0000E94F9850E94BF3B20912A0D30912B0D35
:104EE00040912C0D50912D0D0E94D8D9181614F018
:104EF0000C94E6328AED92E09F938F938091960313
:104F000090E001969F938F938CE792E09F938F930D
:104F10001F920E9484AC0FB6F894DEBF0FBECDBFC7
:104F20000C94E6328EE40E94F63B882311F40C9434
:104F3000E6320E948B3B60931D0F70931E0F80938F
:104F40001F0F9093200F0C94E63283E50E94F63BEE
:104F5000882319F00E949B3B01C080E080939E054E
:104F6000E6E6FEE284918F010F5F1F4F882321F058
:104F70000E94D93CF801F6CFE4EAF2E084918F0177
:104F80000F5F1F4F882321F00E94D93CF801F6CF14
:104F900080919E058823A1F126E9C22E22E0D22E1F
:104FA000E12CF12C20E080919E0590E00E2C02C0B7
:104FB000959587950A94E2F780FF17C0BB24B394B8
:104FC000B20E222319F08CE20E94D93CF601259101
:104FD0003491F901849189010F5F1F4F882321F0DB
:104FE0000E94D93C9801F5CF2B2DFFEFEF1AFF0A55
:104FF00032E0C30ED11C45E0E416F104A1F642C034
:10500000E0EAF2E084918F010F5F1F4F8823D1F116
:105010000E94D93CF801F6CF8AE50E94F63B88232E
:1050200011F40C949C320E94BF3B6B017C0120E088
:1050300030E040EA51EC0E94D8D987FF02C00C94BE
:105040008E3220E030E040EA51E4C701B6010E9410
:1050500020D3181614F40C948E32C092ED0DD09219
:10506000EE0DE092EF0DF092F00D0E94A9B060916C
:10507000ED0D7091EE0D8091EF0D9091F00D42E0ED
:105080000E94AF3F8AE00E94D93C0C94E632109215
:1050900000010C94E6320E9470B20C94E63283E573
:1050A0000E94F63B882369F00E949B3B8093AC01F1
:1050B0008D3310F40C94E6328CE38093AC010C94A5
:1050C000E632E6E6FEE284918F010F5F1F4F8823F0
:1050D00021F00E94D93CF801F6CF4091AC0150E09C
:1050E00060E070E084EB92E00E9416448AE00E9447
:1050F000D93C0C94E6320E9442B610922A0F1092CC
:10510000290F0C9474360E9481B40C94E63280917D
:105110009E0583FF02C00C94E63260E08CEC92E0C6
:105120000E94F98583E50E94F63B8EA781110C94BD
:10513000943382E50E94F63B81110C9494330C94D5
:10514000E6320E94D9B30C94E63280E50E94F63B29
:10515000811106C01092830F1092820F0C94E632D8
:105160000E948B3B672B11F00C94E632F3CF109228
:105170009B030C94E63281E080939B030C94E6320F
:105180000E945FB30C94E63283E50E94F63B8823CD
:1051900011F40C94E6320E94BF3B20E030E04AE775
:1051A00054E40E9486D30E94EBD86093310F709331
:1051B000320F8093330F9093340F0C94E63217EB39
:1051C000C12E11E0D12E0AE7E02E0BE0F02E10E008
:1051D000D6018D916D010E94F63B882309F46DC0C4
:1051E000133009F063C00E94BF3B4B015C0120E01B
:1051F00030E040EA51E40E9420D387FF4EC0A50171
:1052000094016091860B7091870B8091880B90912F
:10521000890B0E9472D82B013C019B01AC0160916B
:10522000760B7091770B8091780B9091790B0E949F
:1052300086D36093760B7093770B8093780B909363
:10524000790BA301920160914A0B70914B0B8091F5
:105250004C0B90914D0B0E9486D360934A0B709338
:105260004B0B80934C0B90934D0B6091AB05709161
:10527000AC058091AD059091AE050E9425D3A301A8
:1052800092010E9486D30E94EBD86093AB05709385
:10529000AC058093AD059093AE058092860B9092FD
:1052A000870BA092880BB092890B07C00E94BF3B6E
:1052B000F70160837183828393831F5FF4E0EF0EB5
:1052C000F11C143009F084CF0E94D9530C94E632BB
:1052D0000E94F06B0E94A0B20C94E632E9EDF2E07D
:1052E00084918F010F5F1F4F882311F40C94E632D5
:1052F0000E94D93CF801F4CF60911D0570911E0504
:105300008091FD0D81110C94E63242E450E08BE572
:1053100091E00E94F0DA0E94199683E080935A018E
:105320000C94E632E8EBF3E084918F010F5F1F4F9E
:10533000882321F00E94D93CF801F6CFE0EBF3E09E
:1053400084918F010F5F1F4F882321F00E94D93C69
:10535000F801F6CF329B03C00FEB12E002C004EC61
:1053600012E0D8018D918D01882319F00E94D93C5B
:10537000F8CF8AE00E94D93CE8EAF3E084918F01FB
:105380000F5F1F4F882321F00E94D93CF801F6CF10
:10539000339B03C00FEB12E002C004EC12E0F801F3
:1053A00081918F01882319F00E94D93CF8CF8AE0BF
:1053B0000E94D93CE0EAF3E084918F010F5F1F4F18
:1053C000882321F00E94D93CF801F6CF349B03C01A
:1053D0000FEB12E002C004EC12E0D8018D918D01B8
:1053E000882309F44FCE0E94D93CF7CF81E0809307
:1053F00055018093980E0C94E6321092550110924C
:10540000980E0C94E63283E50E94F63B8823F9F06F
:105410000E948B3B162F6230D8F0E5E4FAE28491CB
:105420008F010F5F1F4F882321F00E94D93CF801A4
:10543000F6CFE2EDF3E084918F010F5F1F4F8823D9
:1054400011F40C94E6320E94D93CF801F4CF10E03C
:1054500088E40E94F63B8823B1F00E948B3BE12F49
:10546000F0E06A3A71053CF06530B1E07B072CF062
:1054700064E071E002C06AEA70E0EE0FFF1FE752DD
:10548000F34F7183608386E40E94F63B8823B1F07A
:105490000E948B3BE12FF0E0EE0FFF1FE352F34F32
:1054A000718360836F3F710519F014F06FEF70E046
:1054B00077FF02C060E070E07183608382E40E9445
:1054C000F63B882311F40C94E6320E948B3BE12FCB
:1054D000F0E06530710534F0653671052CF064E656
:1054E00070E002C065E070E0EE0FFF1FEB52F34F7B
:1054F000718360830C94E63288EC90E00E94DB3D7F
:1055000081110C94E63284E40E94F63B8823D1F1A9
:105510000E94BF3B11E020E030E0A9010E9420D3AF
:10552000811101C010E010938F0B112359F10091EC
:10553000960310E00E94BF3B000F111F000F111FC8
:10554000F801E65DFE4F608371838283938320E0E0
:1055500030E0A90160912A0170912B0180912C010A
:1055600090912D010E9420D381110CC080E090E029
:10557000A0E4B0E480932A0190932B01A0932C0126
:10558000B0932D010E9471BC0C94E632F801819118
:105590008F010E94F63B882351F00E94BF3B0E947E
:1055A000EBD8D7016D937D938D939C931397B4E0C3
:1055B000EB0EF11CD012EACF0E94AD440C94E632FF
:1055C0008EE3E82E8BE0F82E07EB11E094E0D92E65
:1055D000D00EF80181918F010E94F63B882341F0A3
:1055E0000E94BF3BD7016D937D938D939C9313973E
:1055F000B4E0EB0EF11CD012ECCF0C94E63283E554
:105600000E94F63B8823D9F00E94BF3BAB01BC014E
:105610004093660B5093670B6093680B7093690B14
:1056200040935E0B50935F0B6093600B7093610B24
:105630008EE494E00E9450448AE00E94D93C80E5C8
:105640000E94F63B882399F00E94BF3BAB01BC014E
:105650004093660B5093670B6093680B7093690BD4
:1056600081E394E00E9450448AE00E94D93C82E5A4
:105670000E94F63B882399F00E94BF3BAB01BC011E
:105680004093620B5093630B6093640B7093650BB4
:1056900082E194E00E9450448AE00E94D93C84E573
:1056A0000E94F63B882309F491C70E94BF3BAB01DF
:1056B000BC0140935E0B50935F0B6093600B709343
:1056C000610B84EF93E00E9450448AE00E94D93C31
:1056D0007DC783E50E94F63B882351F00E94BF3BC3
:1056E00060933A0B70933B0B80933C0B90933D0B74
:1056F00084E50E94F63B882351F00E94BF3B6093F3
:10570000360B7093370B8093380B9093390B82E4F0
:105710000E94F63B882351F00E947B3B60939A05E0
:1057200070939B0580939C0590939D0588E50E944E
:10573000F63B882351F00E94BF3B60936A0B709345
:105740006B0B80936C0B90936D0B89E50E94F63B7D
:10575000882351F00E94BF3B60936E0B70936F0BD8
:105760008093700B9093710B8AE50E94F63B88231F
:1057700051F00E94BF3B6093720B7093730B809348
:10578000740B9093750B85E40E94F63B882309F413
:105790001DC70E94BF3B6093760B7093770B80937D
:1057A000780B9093790B12C7F50181915F010E94EC
:1057B000F63B882311F10E94BF3B2B013C01D7012E
:1057C0002D913D914D915C910E9477D79B01AC0149
:1057D000F60160817181828193810E9478D7D60120
:1057E0006D937D938D939C931397F7014082518223
:1057F00062827382C8010E94273B0F5F1F4FF4E053
:10580000CF0ED11C24E0E20EF11C0330110561F62D
:105810000E943C3A0E94A0B2D9C6E6E6FEE284911C
:105820008F010F5F1F4F882321F00E94D93CF801A0
:10583000F6CF83E50E94F63B882321F00E94AF3B20
:1058400080931F01EEE9F4E084918F010F5F1F4FF9
:10585000882321F00E94D93CF801F6CF80911F01E6
:10586000811103C0EAE9F4E002C0E6E9F4E08491C2
:105870008F010F5F1F4F882321F00E94D93CF80150
:10588000F6CFEEE8F4E084918F010F5F1F4F88237D
:1058900021F00E94D93CF801F6CF4091B805509113
:1058A000B9056091BA057091BB058CE894E00E943F
:1058B00050444091BC055091BD056091BE0570916A
:1058C000BF0589E894E00E9450444091C005509182
:1058D000C1056091C2057091C30586E894E00E94FD
:1058E0005044EEE7F4E084918F010F5F1F4F88234F
:1058F00021F00E94D93CF801F6CF4091130150915C
:10590000140160911501709116018CE794E00E94DA
:105910005044409117015091180160911901709104
:105920001A0189E794E00E94504440911B01509174
:105930001C0160911D0170911E0186E794E00E9498
:1059400050448AE00E94D93C41C683E50E94F63B60
:10595000882309F43BC60E948B3B7093120160932D
:10596000110134C68DED90E00E94DB3D81112EC601
:1059700083E50E94F63B882309F428C6009196032C
:1059800010E00E948B3B000F111FF801E15FFE4FFA
:10599000718360831BC680E50E94F63B882309F46F
:1059A00015C60E948B3BF62EC62ED72E83E50E948D
:1059B000F63B882321F00E948B3B8B0102C00FEF46
:1059C0001FEFC8010196039708F000C6D7FCFEC57B
:1059D000EBEBF1E08F2D90E0219131912817390701
:1059E00009F4F4C532E0EB30F307B1F70C944D360F
:1059F00083E50E94F63B882319F00E948B3B02C08E
:105A000064E071E07F8B6E8B80E50E94F63B88231B
:105A100039F00E948B3B693843E1740730F402C0CF
:105A200068EE73E07A83698304C088E893E19A831F
:105A30008983BE016A5E7F4FCE0101960E94FAAE55
:105A4000C5C585E40E94F63B811110C080E50E9427
:105A5000F63B882399F00E94BF3B6093430170930B
:105A60004401809345019093460108C00E948B3BFE
:105A7000161617065CF7E5E4FAE270C089E40E94A6
:105A8000F63B882381F00E94BF3B2CEA35EC47E2CD
:105A90005EE30E9486D360934B0170934C01809328
:105AA0004D0190934E0184E40E94F63B882381F0DF
:105AB0000E94BF3B2CEA35EC47E25EE30E9472D8BD
:105AC00060934701709348018093490190934A0184
:105AD00006E61EE2F8018491882329F00F5F1F4F2C
